:100000000C9438000C9455000C9455000C94550039
:100010000C9455000C9455000C9455000C9455000C
:100020000C9455000C9455000C9455000C945500FC
:100030000C9455000C9455000C9455000C945500EC
:100040000C9455000C9455000C9455000C945500DC
:100050000C9455000C9455000C9455000C945500CC
:100060000C9455000C9455006675636B6F6E000020
:1000700011241FBECFEFD8E0DEBFCDBF11E0A0E05E
:10008000B1E0ECE4F4E002C005900D92A630B107B7
:10009000D9F711E0A6E0B1E001C01D92AA30B10786
:1000A000E1F70E9457000C9424020C9400001F9367
:1000B000DF93CF93CDB7DEB729970FB6F894DEBFA5
:1000C0000FBECDBF84EC90E027E6FC01208385ECD9
:1000D00090E0FC01108280EC90E0FC01108281EC49
:1000E00090E028E1FC01208382EC90E026E0FC0116
:1000F000208384E690E00E94DF009A8389838981CF
:100100009A8128E630E0B9010E94120288E690E068
:1001100064E670E00E9419028C838C81882F90E045
:1001200029813A81820F931F9E838D8318C000001E
:1001300080EC90E0FC018081882F90E080729070CC
:100140000097B1F386EC90E029813A81F901208192
:10015000FC01208389819A8101969A838983298170
:100160003A818D819E812817390708F38C8181504F
:100170008B83000080EC90E0FC018081882F90E070
:10018000807290700097B1F386EC90E02B81222F63
:1001900030E028593F4F38872F832F813885F90168
:1001A000149119872985FC0120838B81882309F408
:1001B00005C08B8181508B830000DCCFFFCFCF93B4
:1001C000DF938230910510F482E090E0E091080125
:1001D000F091090140E050E020E030E026C060816D
:1001E000718168177907E0F06817790781F48281D7
:1001F00093812115310531F0D90113969C938E938B
:1002000012972BC0909309018093080126C04115D5
:10021000510519F06417750718F4AB01E901DF0106
:100220009F0172816381E72FF62F3097C1F6411548
:10023000510501F1481B590B4430510580F41296C9
:100240008D919C911397209719F09B838A8304C00A
:100250009093090180930801FD01329646C0FD018B
:10026000E40FF51F819391934250504011965C9397
:100270004E933BC0209106013091070121153105B5
:1002800041F4209102013091030130930701209342
:10029000060120910401309105012115310541F439
:1002A0002DB73EB74091000150910101241B350B41
:1002B000E0910601F0910701E217F307A0F42E1B6D
:1002C0003F0B2817390778F0AC014E5F5F4F2417BA
:1002D000350748F04E0F5F1F50930701409306010A
:1002E0008193919302C0E0E0F0E0CF01DF91CF91E4
:1002F0000895CF93DF93009709F491C0FC013297E2
:1003000013821282609108017091090161157105D3
:1003100081F420813181280F391F8091060190914D
:1003200007018217930799F5F0930701E0930601FF
:1003300076C0DB0180E090E002C0CD01D901AE17AC
:10034000BF0748F412962D913C9113972115310562
:10035000A1F7CD0121C0B383A283EF014991599147
:100360009E01240F351FA217B30779F42D913C91FC
:100370001197240F351F2E5F3F4F31832083129634
:100380002D913C91139733832283009729F4F093A6
:100390000901E093080143C0DC011396FC93EE933E
:1003A00012974D915D91A40FB51FEA17FB0769F4F1
:1003B00020813181240F351F2E5F3F4FEC0139839F
:1003C0002883228133813B832A83E0E0F0E002C06E
:1003D000FB01BC01DB0112968D919C911397009754
:1003E000B9F79B012E5F3F4F8D919C911197820F22
:1003F000931F40910601509107014817590779F45E
:10040000309729F4109209011092080102C013825A
:100410001282225030403093070120930601DF9171
:10042000CF910895FB01DC0105900D920020E1F7CA
:100430000895FC010590615070400110D8F7809537
:0C04400090958E0F9F1F0895F894FFCF39
:06044C0020000A0100007F
:00000001FF
