:100000000C9438000C9455000C9455000C94550039
:100010000C9455000C9455000C9455000C9455000C
:100020000C9455000C9455000C9455000C945500FC
:100030000C9455000C9455000C9455000C945500EC
:100040000C9455000C9455000C9455000C945500DC
:100050000C9455000C9455000C9455000C945500CC
:100060000C9455000C9455006675636B6F666600C2
:1000700011241FBECFEFD8E0DEBFCDBF11E0A0E05E
:10008000B1E0EAEFF2E002C005900D92A630B107B0
:10009000D9F711E0A6E0B1E001C01D92AA30B10786
:1000A000E1F70E9457000C947B010C94000083E35D
:1000B0008093C4001092C5001092C00088E980931C
:1000C000C10086E08093C20084E690E00E946F0049
:1000D00068E670E00E94740180E090E00895CF939C
:1000E000DF93BC018230910510F462E070E0A091D2
:1000F0000801B0910901ED01E0E0F0E040E050E0DE
:1001000021C0888199818617970769F48A819B812C
:10011000309719F09383828304C0909309018093F0
:100120000801FE0134C06817790738F441155105FC
:1001300019F08417950708F4AC01FE018A819B81B0
:100140009C01E9012097E9F641155105A9F1CA0181
:10015000861B970B049708F4BA01E0E0F0E02AC090
:100160008D919C91119784179507F9F46417750781
:1001700081F412968D919C911397309719F0938387
:10018000828304C09093090180930801FD01329697
:100190004FC0CA01861B970BFD01E80FF91F619341
:1001A000719302978D939C9343C0FD01828193814B
:1001B0009C01D9011097A1F6809106019091070149
:1001C000892B41F4809102019091030190930701E2
:1001D000809306014091040150910501411551059C
:1001E00041F44DB75EB78091000190910101481B29
:1001F000590B209106013091070124173507B0F4FF
:10020000CA01821B930B8617970780F0AB014E5FE4
:100210005F4F8417950750F0420F531F509307010B
:1002200040930601F9016193719302C0E0E0F0E0B0
:10023000CF01DF91CF910895CF93DF93009709F419
:1002400050C0EC0122971B821A82A0910801B09144
:100250000901109709F140E050E0AC17BD0708F123
:10026000BB83AA83FE0121913191E20FF31FAE17E8
:10027000BF0779F48D919C911197280F391F2E5F3C
:100280003F4F3983288312968D919C9113979B83BE
:100290008A834115510571F4D0930901C093080177
:1002A00020C012968D919C911397AD01009711F08B
:1002B000DC01D3CFFA01D383C28321913191E20FC4
:1002C000F31FCE17DF0769F488819981280F391F42
:1002D0002E5F3F4FFA01318320838A819B81938374
:1002E0008283DF91CF910895FB01DC0105900D928F
:0A02F0000020E1F70895F894FFCF15
:0602FA0020000A010000D3
:00000001FF
