:020000020000FC
:020000000FC12E
:1000680053E35093C40050E05093C50058E05093B8
:10007800C10056E05093C20055275093C000089520
:100088005091C00055FFFCCF4093C60008955F9380
:100098004F934427245610F04395FCCF2C594030F9
:1000A80019F0405DEDDF44272A5010F04395FCCF4E
:1000B800265F403011F0405DE3DF422F405DE0DF16
:1000C80040E2DEDF4F915F91089550EF5AB95FE04B
:1000D8005BB908955FE75BB949B1469510F041E314
:1000E8000895469510F044E30895469510F047E3C7
:1000F8000895469510F04AE208955FEB5BB949B15F
:10010800469510F042E30895469510F045E30895AA
:10011800469510F048E30895469510F040E3089599
:100128005FED5BB949B1469510F043E308954695F4
:1001380010F046E30895469510F049E30895469572
:1001480043E20895459162D06A95E1F7089540E148
:1001580060C04A3028F04A504F9341E357D04F913E
:10016800405D54D008955F932FD05F915A95D9F789
:100178000895552755B95EE054B959E1F4DF40E3D5
:100188002A9839D059E1EFDF40E32A9834D059E171
:10019800EADF40E32A982FD05AE0E5DF40E22A98C8
:1001A8002AD059E1E0DF48E234D050E0DCDF48E013
:1001B80030D059E1D8DF41E02CD050E0D4DF50E016
:1001C800D2DF4CE026D008955AE05A95F1F7089509
:1001D800552757B9299A2A982B9AF6DF56B15F9373
:1001E8002B98F2DF2B9AF0DF2B98EEDF5F91587097
:1001F80099F7089500D042955EE054B95FE057B989
:1002080029982B9A48B92B98DFDF0895E1DF2A9ABD
:10021800F1CFDEDF2A98EECF00900001AADF53E08D
:100228005093300140ECF5DFE6EAF2E06DE08ADF5A
:1002380040E8EFDF4ADF4EDFF0F34A32B9F450917D
:1002480030015395537050933001552311F44BE20C
:1002580010C05F937CDF5F915A9511F44DE209C09D
:100268005A9511F44AE205C04FE203C053E0509397
:100278003001CCDF04D0DFCF209A2898FFCF03D0FD
:1002880029DFE8F7089550E05150F1F7089559E152
:100298005150F1F7089555E05150F1F708954C5534
:0C02A800424C552045564F43484B550032
:00000001FF
