:020000020000FC
:02000000B6C088
:10006800459146D06A95E1F708954A3028F04A50FC
:100078004F9341E33DD04F91405D3AD0089548E316
:100088003AD041E038D04CE036D008955AE05A953D
:10009800F1F708955EE054B9552757B92D9A299A72
:1000A8002A982B9AF3DF53B150722B98D1F7552722
:1000B80054B957B92D9808955EE354B95FE357B919
:1000C80029982B9A042E5FE3052258B1507C5029B9
:1000D80058B9042E50EC05220694069455B15F7C5D
:1000E800502955B92B98D2DF552754B957B90895D7
:1000F800D1DF2A9AE1CFCEDF2A98DECF53E350939F
:10010800C40050E05093C50058E05093C10056E039
:100118005093C20055275093C00008955091C000D5
:1001280055FFFCCF4093C60008955F934F93442733
:10013800245610F04395FCCF2C59403019F0405DFF
:10014800EDDF44272A5010F04395FCCF265F40305E
:1001580011F0405DE3DF422F405DE0DF40E2DEDF8B
:100168004F915F9108950F930F92FF93EF93DF9351
:10017800CF93F2E0EAEED1E0C0E000E1C895099241
:1001880001900A95D9F7CF91DF91EF91FF910F90E8
:100198000F9104E01FE019D00F7FA1F06F936FDF7C
:1001A800E0E2F1E0419161DF40E2A2DF6A95D1F738
:1001B8006F91A4DFE0E2F1E02191B7DF40E2AEDF2A
:1001C8006A95D1F7209A2898FFCF0F930F92FF9343
:1001D800EF93DF93CF93F1E0E0E0D1E0C0E100E1FD
:1001E800019009920A95E1F7CF91DF91EF91FF9184
:1001F8000F900F9160E00117C9F02FD0772311F00D
:1002080017D0F9CF39D0772311F012D0F4CF45D0D9
:10021800772311F00DD0EFCF49D0772311F008D014
:10022800EACF14D0662339F7002708950FEF089511
:10023800F1E0E0E1E40FF0408FEF8083F1E0E0E2ED
:10024800E60FF04040836395042F08956A95F1E026
:10025800E0E2E60FF04002910895772754E0402F3E
:1002680036D02F93402F439532D03F91231719F45E
:1002780026D009F47FEF08957727402F442361F0B3
:1002880054E025D02F93402F4A9521D03F91231732
:1002980019F415D009F47FEF08957727402F4430DB
:1002A80020F044500CD009F47FEF08957727402FB1
:1002B8004C3020F44C5F03D009F47FEF0895F1E04F
:1002C800E0E1E40F0024F01D0080002008954F9322
:1002D8002227451718F0451B2395FBCF342F4F9144
:1002E800089503010200000000030001000200005D
:0202F800000004
:00000001FF
