:020000020000FC
:0200000033C00B
:020040002EC0D0
:1000680058E05EBF5FEF5DBF5098589A489A48E3E2
:100078005BD041E059D04CE057D068E2F0E0ECECBE
:1000880045914FD06A95E1F751E055BD51E0509345
:100098006E007894FFCF5091000153955093000162
:1000A80048990FC041E040D0409100014F701ED0E8
:1000B80040E237D0409100014695469546954695D1
:1000C80015D018956675636B6F6666202020202012
:1000D80020202020202020206675636B6F66662014
:1000E8002020202020202020202020204A3028F0F6
:1000F8004A504F9341E315D04F91405D12D0089577
:10010800409A4198429A55B1550F4298C8F30895BC
:1001180040980FEF04B9429A45B94298002704B9AC
:100128000895EEDF419AF4CFEBDF4198F1CFE8DF95
:10013800419A409A002704B9429A45B142980895D5
:00000001FF
