:020000020000FC
:0200000033C00B
:020040003AC0C4
:1000680058E05EBF5FEF5DBF5098589A489A5BE0D2
:100078005093C50050E05093C40058E15093C1001C
:100088005EE05093C20048E36AD041E068D04CE09B
:1000980066D068E2F0E0E0EE45915ED06A95E1F75F
:1000A80051E055BD51E050936E007894FFCF5091C8
:1000B800000153955093000148990DC040910001EB
:1000C8004F7028D040E230D04091000146954695C7
:1000D800469546951FD018956675636B6F666620C2
:1000E8002020202020202020202020206675636BDF
:1000F8006F6666202020202020202020202020201D
:100108004A3028F04A504F9341E326D04F91405D42
:1001180023D008954A3028F04A504F9341E304D041
:100128004F91405D01D008955091C0005072E1F3A5
:100138004093C6000895409A4198429A55B1550F88
:100148004298C8F3089540980FEF04B9429A45B908
:100158004298002704B90895EEDF419AF4CFEBDF07
:100168004198F1CFE8DF419A409A002704B9429AB2
:0601780045B14298089514
:00000001FF
