:100000000C9434000C9446000C9446000C9446006A
:100010000C9446000C9446000C9446000C94460048
:100020000C9446000C9446000C9446000C94460038
:100030000C9446000C9446000C9446000C94460028
:100040000C9446000C9446000C9446000C94460018
:100050000C9446000C9446000C9446000C94460008
:100060000C9446000C94460011241FBECFEFD8E03C
:10007000DEBFCDBF11E0A0E0B1E001C01D92A8300D
:10008000B107E1F70E94CE030C9404040C94000025
:100090001BB815B88FEF8AB984B98FE187B9089575
:1000A00087E68093C4001092C50088E08093C10069
:1000B00086E08093C2001092C00008959091C00025
:1000C00095FFFCCF8093C60008951F93182F8536A7
:1000D00030F064E60E94F803805D0E945E00812F8C
:1000E00064E60E94F803892F9B3030F06AE00E949A
:1000F000F803805D0E945E00812F6AE00E94F80391
:10010000892F805D0E945E001F9108952BB1982F6A
:100110009C7F2370922B9BB995B183709C7F892B18
:1001200085B9089589B193B193708C7F892B089517
:100130004298409A43980E9486004198419A439A77
:100140000895429A409A43980E9486004198419AA5
:10015000439A0895439A419A409A44988FE39FE1C5
:100160000197F1F700C00000449A439881E00E9493
:10017000980083E04198419A8150E1F7439A0895AD
:100180000E9486004198419A0895BF92CF92DF92D3
:10019000EF92FF920F931F93B82E439842980E94BC
:1001A000C0008AB183708AB984B18C7F84B9429AC5
:1001B00087EC90E00197F1F700C0000040989AE1C9
:1001C0009A95F1F700C00E949200E82E0E94650007
:1001D000409AFF2400E010E0102F0F2DFE2CEE249B
:1001E00040988AE18A95F1F700C00E949200C82EDB
:1001F0000E946500409A8C2D90E0A0E0B0E08E292E
:100200009F29A02BB12BCC24D82EE92EFA2E409872
:100210009AE19A95F1F700C00E949200182F0E946F
:100220006500409A812F90E0A0E0B0E08C299D29E4
:10023000AE29BF29EE24F82E092F1A2F40988AE103
:100240008A95F1F700C00E949200C82E0E946500B6
:10025000409A2C2D30E040E050E02E293F29402BE1
:10026000512B9B2D9F3EB9F4EE24F22E032F142F19
:1002700040988AE18A95F1F700C00E949200C82E4A
:100280000E946500409A2C2D30E040E050E02E297D
:100290003F29402B512B439A8AB18C6F8AB984B184
:1002A000836084B987E592E00197F1F700C0000010
:1002B000B901CA011F910F91FF90EF90DF90CF908D
:1002C000BF9008951F93182F86E30E949800113065
:1002D00049F0113028F0123039F0133001F510C018
:1002E00088E403C088E20DC088E80E94A10080EF86
:1002F00090E0909305018093040180E491E00BC0AD
:1003000088EE0E94A10080E491E090930501809323
:10031000040180EF90E090930701809306011F9104
:1003200008950E9448000E94AA008FEF93EDA0E379
:1003300081509040A040E1F700C0000083ED0E9492
:10034000C5006093000170930101809302019093B6
:10035000030181E00E9498008BEC0E94980089E3E1
:100360000E94A1008CE20E94A10080E00E94A100F6
:1003700084E30E94A10082E00E94A1008FEC0E9411
:10038000980080E00E94A10081EC0E94A10080E31F
:100390000E94A10088EE0E94980085E80E94A100BA
:1003A00080E00E94A10088E70E94A1008AEE0E94DE
:1003B000980080E00E94A10080E00E94A1008DEEE4
:1003C0000E94980084E60E94A10083E00E94A100A0
:1003D00082E10E94A10081E80E94A10087EF0E94B3
:1003E000980080E20E94A10080EC0E94980080E1C9
:1003F0000E94A10081EC0E94980080E10E94A1006F
:1004000085EC0E9498008EE30E94A10088E20E9481
:10041000A10087EC0E94980086E80E94A10080E07D
:100420000E9462018AE30E94980085E50E94A10073
:1004300081EB0E94980080E00E94A10088E10E9468
:10044000A10086EB0E94980088E00E94A10082E84B
:100450000E94A10087E20E94A10082EF0E94980002
:1004600080E00E94A10086E20E94980081E00E9444
:10047000A10080EE0E9498008FE00E94A10081E31D
:100480000E94A1008BE20E94A1008CE00E94A100CA
:100490008EE00E94A10088E00E94A1008EE40E94EC
:1004A000A10081EF0E94A10087E30E94A10087E0E4
:1004B0000E94A10080E10E94A10083E00E94A100AF
:1004C0008EE00E94A10089E00E94A10080E00E94CD
:1004D000A10081EE0E94980080E00E94A1008EE0C1
:1004E0000E94A10084E10E94A10083E00E94A1007B
:1004F00081E10E94A10087E00E94A10081E30E94A7
:10050000A10081EC0E94A10088E40E94A10088E083
:100510000E94A1008FE00E94A1008CE00E94A10037
:1005200081E30E94A10086E30E94A1008FE00E9467
:10053000A10081E10E9498008FEF92E5A7E0815031
:100540009040A040E1F700C0000089E20E949800BE
:100550008CE20E94A1004398429889E20E94C00068
:10056000429A8CE20E94C000439A8FEF92E5A7E086
:1005700081509040A040E1F700C000000895BF9274
:10058000CF92DF92EF92FF920F931F93CF93DF935F
:10059000D82EC92E7A018B01439842988CE20E9492
:1005A000C000429A8C2D0E94C0008D2D0E94C00078
:1005B0000894E108F10801091109D801C70166E0B2
:1005C000B695A795979587956A95D1F7EC01CD14C7
:1005D00009F03FC014C080E14198419A4198419A86
:1005E0004198419A4198419A4198419A4198419A3B
:1005F0004198419A4198419A815071F721972097EB
:1006000051F78E2D8F7305C04198419A4198419AB8
:1006100081508823C9F72BC050E1B52E8C2D0E9444
:10062000C0008D2D0E94C0008C2D0E94C0008D2D19
:100630000E94C0008C2D0E94C0008D2D0E94C00021
:100640008C2D0E94C0008D2D0E94C000BA9431F7FD
:100650002197209709F78FE3E82207C08C2D0E948D
:10066000C0008D2D0E94C000EA94EE20B9F7439A95
:10067000DF91CF911F910F91FF90EF90DF90CF907E
:10068000BF900895DF93CF9300D000D0CDB7DEB7F1
:10069000439842984C835B836A8379830E94C000AD
:1006A000429A85E08A95F1F700007981872F0E94B0
:1006B000C000E5E0EA95F1F700006A81862F0E940C
:1006C000C000F5E0FA95F1F700005B81852F0E94EC
:1006D000C00085E08A95F1F700004C81842F0E94CC
:1006E000C000439A0F900F900F900F90CF91DF9121
:1006F00008950F931F93CF93DF938B01E9014398E4
:10070000A0E0B0E0DC019927882760E070E0482B8A
:10071000592B6A2B7B2B8AE20E94420320E030E0B7
:10072000980111270027AE0160E070E0402B512BAB
:10073000622B732B8BE20E944203439ADF91CF918D
:100740001F910F910895CF93DF93EC014091040125
:100750005091050141505040209106013091070110
:100760002150304080E090E060E070E00E9479032A
:10077000609106017091070180E090E020910401F2
:100780003091050140E050E00E94D903AB01BC016B
:10079000CE010E94BF02DF91CF9108950E945000C8
:1007A0000E94910180E090E00E94A30380E090E02D
:1007B0000895629FD001739FF001829FE00DF11DAB
:1007C000649FE00DF11D929FF00D839FF00D749FCB
:1007D000F00D659FF00D9927729FB00DE11DF91F77
:1007E000639FB00DE11DF91FBD01CF0111240895D4
:1007F000991B79E004C0991F961708F0961B881F73
:0C0800007A95C9F780950895F894FFCF11
:00000001FF
