:020000020000FC
:02000000B8C086
:0200400013C0EB
:0200340034C0D6
:100068000F93EF93FF930FB70F9300EE06BDE0E0F9
:10007800F1E000810F5F019300810F4F0193008130
:100088000F4F019300810F4F01930F910FBFFF9105
:10009800EF910F9118950F93EF93FF930FB70F936D
:1000A80000910501039500930501043100910401B5
:1000B80010F4026001C00D7F0093040105B90F918F
:1000C8000FBFFF91EF910F9118950F934F935F9387
:1000D8006F937F930F92FF93EF93E0E0F1E001912C
:1000E800020F402F0191031F502F01910024001D82
:1000F800602F0191001D702FE0E0F1E00191041BD9
:100108000191050B0191060B0191070BA8F3EF91E3
:10011800FF910F907F916F915F914F910F9108958B
:100128000091C00005FFFCCF1093C60008950F93FF
:100138001F931127245610F01395FCCF2C5910301B
:1001480019F0105DEDDF11272A5010F01395FCCF40
:10015800265F103011F0105DE3DF122F105DE0DF35
:1001680010E2DEDF1F910F91089501E000936E0009
:1001780004E005BD00EE06BD01E000936F0009E054
:100188000093810001E00093800007E004B901E0DA
:1001980005B90093040100270093000100930101B1
:1001A80000930201009303010093050100E200930C
:1001B8007C0006E800937A0003E30093C40000E0A3
:1001C8000093C50008E00093C10006E00093C20058
:1001D80000270093C000789421E030E076DF06ED38
:1001E80000937A0000917A0004FFFCCF20917900F7
:1001F8009EDFF8940091040111E001270B7F1B9901
:0A0208000460009304017894E7CF2E
:00000001FF
