:020000020000FC
:0200000007C136
:1000680053E35093C40050E05093C50058E05093B8
:10007800C10056E05093C20055275093C000089520
:100088005091C00055FFFCCF4093C60008955F9380
:100098004F934427245610F04395FCCF2C594030F9
:1000A80019F0405DEDDF44272A5010F04395FCCF4E
:1000B800265F403011F0405DE3DF422F405DE0DF16
:1000C80040E2DEDF4F915F91089550EF5AB95FE04B
:1000D8005BB908955FE75BB949B1469510F041E314
:1000E8000895469510F044E30895469510F047E3C7
:1000F8000895469510F04AE208955FEB5BB949B15F
:10010800469510F042E30895469510F045E30895AA
:10011800469510F048E30895469510F040E3089599
:100128005FED5BB949B1469510F043E308954695F4
:1001380010F046E30895469510F049E30895469572
:1001480043E208954298419843983A9A399A3B9ADB
:100158004CD00895F89449D04298419A439A50D087
:1001680009B10F9343984CD0439A4AD0439848D04A
:100178000F91007899F778940895F894EBDF4298F6
:1001880003C0F894E7DF429A4198439A35D01F9309
:10019800107F0BB10F700F93012B0BB931D043981F
:1001A8002FD0439A0F911F911295107F012B0BB9F5
:1001B80027D043981AD078940895F894CBDF4298C2
:1001C80003C0F894C7DF429A419A439A19D019B1EB
:1001D8004398107F129514D0439A012F19B1439870
:1001E800107F102B1295789408950AB10F700AB9F0
:1001F8000BB1006F0BB908950AB1006F0AB90895E1
:100208000AE00A95F1F708959DDFFADF10E2B5DFFD
:1002180018E2B3DF11E0B1DF16E0AFDF1CE0ADDFBD
:1002280012E0ABDF11E4ADDFFFCF53E050933001B4
:100238004CDF50DFF0F34A32B1F45091300153955E
:10024800537050933001552311F44BE20FC05F9364
:100258005F915A9511F44DE209C05A9511F44AE29A
:1002680005C04FE203C053E05093300104D0E1CF02
:10027800209A2898FFCF03D02DDFE8F7089550E0A3
:100288005150F1F7089559E15150F1F7089555E0AB
:0C0298005150F1F70895CFF0E5E2E5E4E5
:00000001FF
