:020000020000FC
:0200000059C7DE
:100068003F932F931F930F93203059F100E80131EC
:1000780008F40EC004E704500430E8F7013029F012
:10008800003031F0023021F003C000000000000011
:100098001EE3103091F0115007EF04500430E8F7D8
:1000A800013029F0003031F0023021F003C00000A7
:1000B80000000000103079F700002150203009F0CE
:1000C800D5CF303051F131502FEF05E8013108F428
:1000D8000EC009E704500430E8F7013029F0003079
:1000E80031F0023021F003C000000000000019E3E5
:1000F800103091F0115007EF04500430E8F7013048
:1001080029F0003031F0023021F003C00000000077
:100118000000103079F70000A9CF0F911F912F919F
:100128003F91089557E65093C40050E05093C5009E
:1001380058E05093C10056E05093C20055275093A1
:10014800C00008955091C00055FFFCCF4093C600F1
:1001580008955F934F934427245610F04395FCCF9E
:100168002C59403019F0405DEDDF44272A5010F03B
:100178004395FCCF265F403011F0405DE3DF422F0E
:10018800405DE0DF40E2DEDF4F915F9108950000BF
:100198000000000000007E81A581BD99817E3C7E23
:1001A800DBFFC37E3C0000EEFEFE7C3810001038FA
:1001B8007CFE7C381000003C18FFFF08180010383F
:1001C8007CFEFE1038000000183C18000000FFFFFD
:1001D800E7C3E7FFFFFF003C428181423C00FFC3C9
:1001E800BD7E7EBDC3FF1F070D7CC6C67C00007E9A
:1001F800C3C37E187E180406070404FCF8000C0A22
:100208000D0BF9F91F1F00927C44C67C9200000078
:1002180060787E7860000000061E7E1E0600187E4C
:10022800181818187E186666666666006600FFB6B7
:100238007636363636007EC1DC22221F837E0000E9
:10024800007E7E000000187E18187E1800FF187EB9
:1002580018181818180018181818187E180000040C
:1002680006FF06040000002060FF60200000000078
:1002780000C0C0C0FF00002466FF66240000000024
:1002880010387CFE0000000000FE7C3810000000E2
:10029800000000000000303030303000300066666A
:1002A8000000000000006C6CFE6CFE6C6C00107CA2
:1002B800D27C867C1000F096FC183E72DE00304836
:1002C8003078CECC78000C0C1800000000001060CC
:1002D800C0C0C0601000100C0606060C10000054C8
:1002E80038FE385400000018187E18180000000066
:1002F8000000000018700000007E000000000000F0
:1003080000000000180002060C183060C0007CCE07
:10031800DEF6E6E67C001838781818183C007CC62B
:10032800060C3060FE007CC6063C06C67C000E1E2D
:100338003666FE060600FEC0C0FC0606FC007CC64B
:10034800C0FCC6C67C00FE060C18306060007CC687
:10035800C67CC6C67C007CC6C67E06C67C0000304D
:100368000000003000000030000000302000001CB9
:100378003060301C000000007E007E00000000702D
:10038800180C187000007CC60C18300030007C82F5
:100398009AAAAA9E7C007CC6C6FEC6C6C600FC6693
:1003A800667C6666FC007CC6C0C0C0C67C00FC6675
:1003B80066666666FC00FE6268786862FE00FE6239
:1003C80068786860F0007CC6C6C0DEC67C00C6C619
:1003D800C6FEC6C6C6003C18181818183C001E0CE5
:1003E8000C0C0CCC7800C6CCD8F0D8CCC600F06089
:1003F80060606062FE00C6EEFED6C6C6C600C6E6EF
:10040800F6DECEC6C6007CC6C6C6C6C67C00FC667E
:10041800667C6060F0007CC6C6C6C6C67C0CFC66FE
:10042800667C6666E6007CC6C07C06C67C007E5A92
:10043800181818183C00C6C6C6C6C6C67C00C6C66C
:10044800C6C6C66C3800C6C6C6C6D6EEC600C66CDA
:100458003838386CC6006666663C18183C00FEC61C
:100468000C183066FE001C18181818181C00C060FC
:1004780030180C0602007030303030307000000048
:1004880010386CC6000000000000000000FF30308B
:1004980018000000000000007C067EC67E00C0C078
:1004A800FCC6C6C6FC0000007CC6C0C67C000606AA
:1004B8007EC6C6C67E0000007CC6FEC07C003C66C8
:1004C80060F06060600000007EC6C67E067CC0C02A
:1004D800FCC6C6C6C6001800381818183C00000C20
:1004E800001C0C0CCC78C0C0C6D8F0D8C600381890
:1004F800181818183C000000EEFED6C6C60000000A
:10050800FCC6C6C6C60000007CC6C6C67C00000085
:10051800FCC6C6FCC0C000007EC6C67E060600003B
:10052800DE766060600000007CC07C067C001818E5
:100538007E1818181E000000C6C6C6C67E00000039
:10054800C6C6C66C38000000C6C6D6FEC600000087
:10055800C66C386CC6000000C6C6C67E067C0000A5
:10056800FE0C1860FE000E18187018180E001818E7
:10057800180018181800E030301C3030E000000077
:10058800709A0E0000000000183C66FF00002288E8
:1005980022882288228855AA55AA55AA55AADB7707
:1005A800DBEEDB77DBEE10101010101010101010BF
:1005B8001010F01010101010F010F010101014148B
:1005C8001414F414141400000000FC141414000093
:1005D800F010F01010101414F404F414141414147B
:1005E8001414141414140000FC04F4141414141433
:1005F800F404FC00000014141414FC000000101093
:10060800F010F000000000000000F01010101010B2
:1006180010101F00000010101010FF000000000054
:100628000000FF101010101010101F101010000004
:100638000000FF00000010101010FF101010101024
:100648001F101F1010101414141417141414141459
:1006580017101F00000000001F10171414141414A2
:10066800F700FF0000000000FF00F7141414141432
:100678001710171414140000FF00FF0000001414D2
:10068800F700F71414141010FF00FF0000001414F2
:100698001414FF0000000000FF00FF1010100000FD
:1006A8000000FF141414141414141F000000101078
:1006B8001F101F00000000001F101F101010000066
:1006C80000001F14141414141414FF14141410101C
:1006D800FF10FF10101010101010F00000000000A4
:1006E80000001F101010FFFFFFFFFFFFFFFF0000BB
:1006F8000000FFFFFFFFF0F0F0F0F0F0F0F00F0F58
:100708000F0F0F0F0F0FFFFFFFFF0000000000008B
:10071800FE00FE00FE0010107C1010007C0060300F
:10072800183060007800183060301800780008141D
:100738001010101010101010101010502000303031
:1007480000FC00303000000064980064980060905D
:100758009060000000000000003030000000000041
:100768000000300000001F10109050301000A0D082
:1007780090909000000060902040F0000000000081
:100788003C3C3C3C000000000000000000000E1E45
:100798003666FEC6C600FCC0C0FCC6C6FC00F8CC67
:1007A800CCFCC6C6FC00FCC0C0C0C0C0C0007E6691
:1007B80066666666FFC3FCC0C0F8C0C0FE00DBDB2F
:1007C8007E187EDBDB003C66063C06C67C00C6C69F
:1007D800CEDEF6E6C600D6C6CEDEF6E6C600C6CC47
:1007E800D8F8CCC6C600060E1E3666C6C600C6EECB
:1007F800FED6C6C6C600C6C6C6FEC6C6C6007CC6E7
:10080800C6C6C6C67C00FEC6C6C6C6C6C600FCC6E8
:10081800C6FCC0C0C0007CC6C0C0C0C67C00FC30DE
:10082800303030303000C6C6C67E06C67C00187E22
:10083800DBDBDB7E1800C3663C183C66C300CCCC0F
:10084800CCCCCCCCFE06C6C6C67E06060600D6D6DE
:10085800D6D6D6D6FE00D6D6D6D6D6D6FF03F03014
:10086800303E33333E00C2C2C2F2DADAF200C0C010
:10087800C0FCC6C6FC007CC6061E06C67C00CEDBD5
:10088800DBFBDBDBCE007EC6C67E3666C60000001C
:10089800780C7CCC7E000478C0F8CCCC78000000C2
:1008A800F8CCF8C6FC000000FCC0C0C0C0000000C6
:1008B8007E666666FFC3000078CCFCC07C00000042
:1008C800DB7E187EDB00000078CC18CC78000000B6
:1008D800CCCCDCECCC003000CCCCDCECCC00000088
:1008E800CCD8F0CCCC0000000E1E3666C600000046
:1008F800C6EED6C6C6000000CCCCFCCCCC000000AE
:1009080078CCCCCC78000000FCCCCCCCCC0000005F
:10091800F8CCCCF8C0C0000078CCC0CC780000007F
:10092800FC30303030000000CCCC7C0CCC78001887
:100938007EDBDB7E18180000C66C386CC600000031
:10094800CCCCCCCCFE060000CCCC7C0C0C0000003F
:10095800D6D6D6D6FE000000D6D6D6D6FF030000DF
:10096800F0303E333E000000C2C2F2DAF20000006E
:10097800C0C0F8CCF80000007CC61EC67C00000091
:10098800CEDBFBDBCE0000007CCC7C6CCC005F9324
:100998004F934C7F5BB15370542B5BB94F914F937E
:1009A800437055B15C7F542B55B94F915F910895B1
:1009B8005F9349B14C7F53B15370452B5F910895B4
:1009C8004298409A4398E3DF4198419A439A0895A0
:1009D800429A409A4398DBDF4198419A439A089596
:1009E800439A419A409A449822E0332739DB449A43
:1009F800439841E0E5DF4198419A4198419A4198EE
:100A0800419A439A0895209A219A529A539A549A4D
:100A1800559A569A579A5F9355275BB955B95F917E
:100A2800389A399A3A9A3B9A3C9ADADF33E028EEB8
:100A380043EDBED0439841E0C3DF4BECC1DF49E34F
:100A4800C7DF4CE2C5DF40E0C3DF44E3C1DF42E07B
:100A5800BFDF4FECB5DF40E0BBDF41ECB9DF40E37F
:100A6800B7DF48EEADDF45E8B3DF40E0B1DF48E788
:100A7800AFDF4AEEA5DF40E0ABDF40E0A9DF4DEE97
:100A88009FDF44E6A5DF43E0A3DF42E1A1DF41E8C1
:100A98009FDF47EF95DF40E29BDF40EC91DF40E1CD
:100AA80097DF41EC8DDF40E193DF45EC89DF4EE3D2
:100AB8008FDF48E28DDF47EC83DF46E889DF442794
:100AC800AFD04AE37DDF45E583DF41EB79DF40E0E6
:100AD8007FDF48E17DDF46EB73DF48E079DF42E8FE
:100AE80077DF47E275DF42EF6BDF40E071DF46E218
:100AF80067DF41E06DDF40EE63DF4FE069DF41E330
:100B080067DF4BE265DF4CE063DF4EE061DF48E022
:100B18005FDF4EE45DDF41EF5BDF47E359DF47E02E
:100B280057DF40E155DF43E053DF4EE051DF49E056
:100B38004FDF40E04DDF41EE43DF40E049DF4EE06C
:100B480047DF44E145DF43E043DF41E141DF47E080
:100B58003FDF41E33DDF41EC3BDF48E439DF48E07C
:100B680037DF4FE035DF4CE033DF41E331DF46E389
:100B78002FDF4FE02DDF41E123DF26E9332770DA4D
:100B880049E21EDF4CE224DF26E9332769DA0895BB
:100B9800FEDE4198419A089550E05150F1F70895CA
:100BA80059E15150F1F7089555E05150F1F7089582
:100BB80043984298EDDF209821985298539854987A
:100BC800559856985798429AE7DFE4E0F1E04F3E8F
:100BD80031F44098E5DFECDE242FBBDA409A4098E8
:100BE800DFDFE6DE4293409A4098DADFE1DE4293A7
:100BF800409A4098D5DFDCDE4293409A4098D0DF97
:100C0800D7DE4293409A439A209A219A529A539A4D
:100C1800549A559A569A579A21E0332721DA08951B
:100C28004F9346E3CDDE4F9120E430EF00241124AA
:100C38001394442359F448E4CBDE30930401009222
:100C48000501209306011092070108954A9559F469
:100C580048E2BEDE2093040110920501309306019C
:100C68000092070108954A9559F448E8B1DE309397
:100C780004010092050120930601109207010895CE
:100C880048EEA6DE20930401109205013093060178
:100C9800009207010895439842984CE279DF429AFE
:100CA800432F76DF422F74DF615070408040321747
:100CB80051F44198419A4198419A6150704080405E
:100CC800C1F7439A0895432F63DF422F61DF6150D4
:100CD80070408040C1F7439A08954398429858DF7E
:100CE800429A62DF492F54DF5FDF482F51DF5CDF14
:100CF800472F4EDF59DF462F4BDF439A089543981D
:100D08009F938F939B2F8A2F4AE2E7DF6F917F9102
:100D18009D2F8C2F4BE2E1DF439A0895AA27BB272A
:100D2800CC27DD2760910401709105016150704066
:100D3800809106019091070181509040E0DF81E0A9
:100D48007CE26627A8DF089550910401A517509109
:100D58000501B507B0F450910601C5175091070178
:100D6800D50778F46A2F7B2F8C2F9D2FC8DF4398E7
:100D780042984CE20DDF429A432F0ADF422F08DFE8
:100D8800439A08956F937F938F939F93239F55273B
:100D98002A953A956A2F7B2F620F751F8C2F9D2FEE
:100DA800830F951FACDF439842984CE2F1DE429ADC
:100DB800FF91EF91BF91AF91602D712DCA2FDB2F5D
:100DC8004591440FC40F5527D51F29913881432FCA
:100DD800DFDE422FDDDE6150704081F7439A0895CF
:100DE800FF93EF93DF93CF93BF93AF9358E0052E14
:100DF800E6E9F1E0242E3324220C331C220C331CA8
:100E0800220C331CE20DF31D50E8152EAF93BF934F
:100E18004590542D512109F097DFAF5FBF4F1694CD
:100E2800C0F7BF91AF91CF5FDF4F0A9469F7AF91D9
:100E3800BF91CF91DF91EF91FF91089545914423A0
:100E480021F0CEDFA85FBF4FF9CF08956F937F934E
:100E580061506B0F7A1F8C2F9D2F51DF7F916F91FF
:100E6800439842984CE294DE429A432F91DE422FF7
:100E78008FDE61507040C9F7439A08958F939F930E
:100E880081508D0F9C1F6A2F7B2F39DF7F916F91C7
:100E9800439842984CE27CDE429A432F79DE422FF7
:100EA80077DE61507040C9F7439A08953BD9ABDDAE
:100EB80051E055BD51E05093AF0346D0E0E0F1E07A
:100EC800219147D9219145D9219143D9219141D9DE
:100ED800FFCFEAECF2E021913CD940E233D96A95A0
:100EE800D1F7FFCFAA27BB27C1EEDD2761EE772711
:100EF800ADDFCF50D9F7CC27DD27A1EEBB2781EE98
:100F08009927BCDFAF50D9F70895EEE3F2E15527F2
:100F1800440FE40FF51F259134915FE0659FA02DE4
:100F2800B12DAE5FBF4F759FC02DD12DCE5FDF4F66
:100F38002093AD033093AE036BEA73E08EEA91E140
:100F48002CE03CE01FDF0895CDDF5FEF5093AB034B
:100F58005FEF5093AC030F930F92FF93EF9300242E
:100F6800F1E0E8E001EE01920A95E9F7EF91FF91CF
:100F78000F900F9118D00895ECD0413EE8F755270F
:100F8800C8E0D1E0C40FD51F58815523A9F74F9366
:100F9800442F5FE0D4D0632F722F57E0F0D04395F1
:100FA80048832F9108950FEF0F93E6DF2F93ADDF5E
:100FB8004F9104D00F910A95B9F70895BAD0102C23
:100FC80004E0302EF1E0E8E022244F93042F75D09E
:100FD800739521F4101411F42394F8CF4F914F9383
:100FE800042F7DD0739521F4101411F42394F8CFB5
:100FF800231404F022244F914F93042F90D073951B
:1010080021F4101411F42394F8CF042F7CD0739595
:1010180021F4101411F42394F8CF231404F04F9101
:101028000895089508950F930F92FF93EF93DF9318
:10103800CF93F1E0E8E0D1E0C9EE01EE019009922A
:101048000A95E1F7CF91DF91EF91FF910F900F9102
:1010580060E00117C9F02FD0772311F017D0F9CF2E
:101068003CD0772311F012D0F4CF4BD0772311F076
:101078000DD0EFCF52D0772311F008D0EACF14D09B
:10108800662339F7002708950FEF0895F1E0E9EE98
:10109800E40FF0408FEF8083F2E0EAECE60FF040D7
:1010A80040836395042F08956A95F2E0EAECE60F11
:1010B800F04002910895F1E0E9EE772700245FE01F
:1010C800402F3DD02F93402F439539D03F91231780
:1010D80019F42FD009F47FEF0895F1E0E9EE002428
:1010E8007727402F442361F05FE029D02F93402FCA
:1010F8004A9525D03F91231719F41BD009F47FEFA7
:101108000895F1E0E9EE00247727402F4F3020F0D2
:101118004F500FD009F47FEF0895F1E0E9EE002475
:101128007727402F423D20F4415F03D009F47FEF39
:101138000895E40F0024F01D0080002008954F93C7
:101148002227451718F0451B2395FBCF342F4F91C5
:1011580008954091AF035BE0459F4750441F5F935C
:1011680056B545275F910090AF03041621F446B5A4
:101178004093AF03EECF4093AF03442F08955F939E
:10118800E8DF5F91442FDBDF432F0895030102005E
:101198000000000300010002000000006675636B98
:1011A8006F666621000000000000000101000000D9
:1011B8000000000000010101010101000000000021
:1011C800010101010100010100000001010101010B
:1011D80001010001010000010101010101010101FA
:1011E80001000101010101010101010101010101E8
:1011F80001010101010101010101000101010101D8
:1012080001010101010000010101010101010001C9
:1012180001000000010101010100010100000000BE
:1012280000010101010101000000000000000001AF
:1012380001000000000000001F0000F81FF8E00790
:06124800FF07E0FFFFFFBD
:00000001FF
